{"abi":[{"type":"constructor","inputs":[{"name":"_avsDirectory","type":"address","internalType":"address"},{"name":"_stakeRegistry","type":"address","internalType":"address"},{"name":"_rewardsCoordinator","type":"address","internalType":"address"},{"name":"_delegationManager","type":"address","internalType":"address"}],"stateMutability":"nonpayable"},{"type":"function","name":"allTaskHashes","inputs":[{"name":"","type":"uint256","internalType":"uint256"}],"outputs":[{"name":"","type":"bytes32","internalType":"bytes32"}],"stateMutability":"view"},{"type":"function","name":"allTaskResponses","inputs":[{"name":"","type":"address","internalType":"address"},{"name":"","type":"uint256","internalType":"uint256"}],"outputs":[{"name":"","type":"bytes","internalType":"bytes"}],"stateMutability":"view"},{"type":"function","name":"allowlistEnabled","inputs":[],"outputs":[{"name":"","type":"bool","internalType":"bool"}],"stateMutability":"view"},{"type":"function","name":"allowlistManager","inputs":[],"outputs":[{"name":"","type":"address","internalType":"address"}],"stateMutability":"view"},{"type":"function","name":"avsDirectory","inputs":[],"outputs":[{"name":"","type":"address","internalType":"address"}],"stateMutability":"view"},{"type":"function","name":"createAVSRewardsSubmission","inputs":[{"name":"rewardsSubmissions","type":"tuple[]","internalType":"struct IRewardsCoordinator.RewardsSubmission[]","components":[{"name":"strategiesAndMultipliers","type":"tuple[]","internalType":"struct IRewardsCoordinator.StrategyAndMultiplier[]","components":[{"name":"strategy","type":"address","internalType":"contract IStrategy"},{"name":"multiplier","type":"uint96","internalType":"uint96"}]},{"name":"token","type":"address","internalType":"contract IERC20"},{"name":"amount","type":"uint256","internalType":"uint256"},{"name":"startTimestamp","type":"uint32","internalType":"uint32"},{"name":"duration","type":"uint32","internalType":"uint32"}]}],"outputs":[],"stateMutability":"nonpayable"},{"type":"function","name":"createNewTask","inputs":[{"name":"_content","type":"string","internalType":"string"},{"name":"_voilationType","type":"uint8","internalType":"enum Censorlt.VoilationType"},{"name":"_contentType","type":"uint8","internalType":"enum Censorlt.ContentType"}],"outputs":[],"stateMutability":"nonpayable"},{"type":"function","name":"deregisterOperatorFromAVS","inputs":[{"name":"operator","type":"address","internalType":"address"}],"outputs":[],"stateMutability":"nonpayable"},{"type":"function","name":"disableAllowlist","inputs":[],"outputs":[],"stateMutability":"nonpayable"},{"type":"function","name":"enableAllowlist","inputs":[],"outputs":[],"stateMutability":"nonpayable"},{"type":"function","name":"getAllowlistAtIndex","inputs":[{"name":"index","type":"uint256","internalType":"uint256"}],"outputs":[{"name":"","type":"address","internalType":"address"}],"stateMutability":"view"},{"type":"function","name":"getAllowlistSize","inputs":[],"outputs":[{"name":"","type":"uint256","internalType":"uint256"}],"stateMutability":"view"},{"type":"function","name":"getOperatorRestakedStrategies","inputs":[{"name":"_operator","type":"address","internalType":"address"}],"outputs":[{"name":"","type":"address[]","internalType":"address[]"}],"stateMutability":"view"},{"type":"function","name":"getReport","inputs":[{"name":"_contentId","type":"uint256","internalType":"uint256"}],"outputs":[{"name":"","type":"tuple","internalType":"struct Censorlt.ContentReport","components":[{"name":"content","type":"string","internalType":"string"},{"name":"contentType","type":"uint8","internalType":"enum Censorlt.ContentType"},{"name":"reporter","type":"address","internalType":"address"},{"name":"voilationType","type":"uint8","internalType":"enum Censorlt.VoilationType"},{"name":"isResolved","type":"bool","internalType":"bool"},{"name":"removeCount","type":"uint256","internalType":"uint256"},{"name":"keepCount","type":"uint256","internalType":"uint256"},{"name":"hasVoted","type":"address[]","internalType":"address[]"},{"name":"taskCreatedBlock","type":"uint32","internalType":"uint32"}]}],"stateMutability":"view"},{"type":"function","name":"getRestakeableStrategies","inputs":[],"outputs":[{"name":"","type":"address[]","internalType":"address[]"}],"stateMutability":"view"},{"type":"function","name":"initialize","inputs":[{"name":"initialOwner_","type":"address","internalType":"address"},{"name":"rewardsInitiator_","type":"address","internalType":"address"},{"name":"allowlistManager_","type":"address","internalType":"address"}],"outputs":[],"stateMutability":"nonpayable"},{"type":"function","name":"isOperatorAllowed","inputs":[{"name":"operator","type":"address","internalType":"address"}],"outputs":[{"name":"","type":"bool","internalType":"bool"}],"stateMutability":"view"},{"type":"function","name":"numReports","inputs":[],"outputs":[{"name":"","type":"uint256","internalType":"uint256"}],"stateMutability":"view"},{"type":"function","name":"owner","inputs":[],"outputs":[{"name":"","type":"address","internalType":"address"}],"stateMutability":"view"},{"type":"function","name":"queryOperators","inputs":[{"name":"start","type":"uint256","internalType":"uint256"},{"name":"count","type":"uint256","internalType":"uint256"}],"outputs":[{"name":"operators","type":"address[]","internalType":"address[]"}],"stateMutability":"view"},{"type":"function","name":"registerOperatorToAVS","inputs":[{"name":"operator","type":"address","internalType":"address"},{"name":"operatorSignature","type":"tuple","internalType":"struct ISignatureUtils.SignatureWithSaltAndExpiry","components":[{"name":"signature","type":"bytes","internalType":"bytes"},{"name":"salt","type":"bytes32","internalType":"bytes32"},{"name":"expiry","type":"uint256","internalType":"uint256"}]}],"outputs":[],"stateMutability":"nonpayable"},{"type":"function","name":"renounceOwnership","inputs":[],"outputs":[],"stateMutability":"nonpayable"},{"type":"function","name":"reports","inputs":[{"name":"","type":"uint256","internalType":"uint256"}],"outputs":[{"name":"content","type":"string","internalType":"string"},{"name":"contentType","type":"uint8","internalType":"enum Censorlt.ContentType"},{"name":"reporter","type":"address","internalType":"address"},{"name":"voilationType","type":"uint8","internalType":"enum Censorlt.VoilationType"},{"name":"isResolved","type":"bool","internalType":"bool"},{"name":"removeCount","type":"uint256","internalType":"uint256"},{"name":"keepCount","type":"uint256","internalType":"uint256"},{"name":"taskCreatedBlock","type":"uint32","internalType":"uint32"}],"stateMutability":"view"},{"type":"function","name":"respondToTask","inputs":[{"name":"_contentId","type":"uint256","internalType":"uint256"},{"name":"_vote","type":"bool","internalType":"bool"},{"name":"signature","type":"bytes","internalType":"bytes"}],"outputs":[],"stateMutability":"nonpayable"},{"type":"function","name":"rewardsInitiator","inputs":[],"outputs":[{"name":"","type":"address","internalType":"address"}],"stateMutability":"view"},{"type":"function","name":"setAllowlist","inputs":[{"name":"operators","type":"address[]","internalType":"address[]"},{"name":"status","type":"bool[]","internalType":"bool[]"}],"outputs":[],"stateMutability":"nonpayable"},{"type":"function","name":"setAllowlistManager","inputs":[{"name":"_allowlistManager","type":"address","internalType":"address"}],"outputs":[],"stateMutability":"nonpayable"},{"type":"function","name":"setRewardsInitiator","inputs":[{"name":"newRewardsInitiator","type":"address","internalType":"address"}],"outputs":[],"stateMutability":"nonpayable"},{"type":"function","name":"stakeRegistry","inputs":[],"outputs":[{"name":"","type":"address","internalType":"address"}],"stateMutability":"view"},{"type":"function","name":"transferOwnership","inputs":[{"name":"newOwner","type":"address","internalType":"address"}],"outputs":[],"stateMutability":"nonpayable"},{"type":"function","name":"updateAVSMetadataURI","inputs":[{"name":"_metadataURI","type":"string","internalType":"string"}],"outputs":[],"stateMutability":"nonpayable"},{"type":"event","name":"AllowlistDisabled","inputs":[],"anonymous":false},{"type":"event","name":"AllowlistEnabled","inputs":[],"anonymous":false},{"type":"event","name":"AllowlistManagerChanged","inputs":[{"name":"previousManager","type":"address","indexed":true,"internalType":"address"},{"name":"newManager","type":"address","indexed":true,"internalType":"address"}],"anonymous":false},{"type":"event","name":"AllowlistUpdated","inputs":[{"name":"operators","type":"address[]","indexed":false,"internalType":"address[]"},{"name":"status","type":"bool[]","indexed":false,"internalType":"bool[]"}],"anonymous":false},{"type":"event","name":"Initialized","inputs":[{"name":"version","type":"uint8","indexed":false,"internalType":"uint8"}],"anonymous":false},{"type":"event","name":"OwnershipTransferred","inputs":[{"name":"previousOwner","type":"address","indexed":true,"internalType":"address"},{"name":"newOwner","type":"address","indexed":true,"internalType":"address"}],"anonymous":false},{"type":"event","name":"RewardsInitiatorUpdated","inputs":[{"name":"prevRewardsInitiator","type":"address","indexed":false,"internalType":"address"},{"name":"newRewardsInitiator","type":"address","indexed":false,"internalType":"address"}],"anonymous":false},{"type":"event","name":"TaskResponded","inputs":[{"name":"_reportIndex","type":"uint256","indexed":true,"internalType":"uint256"},{"name":"_report","type":"tuple","indexed":true,"internalType":"struct Censorlt.ContentReport","components":[{"name":"content","type":"string","internalType":"string"},{"name":"contentType","type":"uint8","internalType":"enum Censorlt.ContentType"},{"name":"reporter","type":"address","internalType":"address"},{"name":"voilationType","type":"uint8","internalType":"enum Censorlt.VoilationType"},{"name":"isResolved","type":"bool","internalType":"bool"},{"name":"removeCount","type":"uint256","internalType":"uint256"},{"name":"keepCount","type":"uint256","internalType":"uint256"},{"name":"hasVoted","type":"address[]","internalType":"address[]"},{"name":"taskCreatedBlock","type":"uint32","internalType":"uint32"}]},{"name":"_operator","type":"address","indexed":true,"internalType":"address"}],"anonymous":false},{"type":"event","name":"newReportCreated","inputs":[{"name":"_numReports","type":"uint256","indexed":true,"internalType":"uint256"},{"name":"_newReport","type":"tuple","indexed":true,"internalType":"struct Censorlt.ContentReport","components":[{"name":"content","type":"string","internalType":"string"},{"name":"contentType","type":"uint8","internalType":"enum Censorlt.ContentType"},{"name":"reporter","type":"address","internalType":"address"},{"name":"voilationType","type":"uint8","internalType":"enum Censorlt.VoilationType"},{"name":"isResolved","type":"bool","internalType":"bool"},{"name":"removeCount","type":"uint256","internalType":"uint256"},{"name":"keepCount","type":"uint256","internalType":"uint256"},{"name":"hasVoted","type":"address[]","internalType":"address[]"},{"name":"taskCreatedBlock","type":"uint32","internalType":"uint32"}]}],"anonymous":false},{"type":"error","name":"AlreadyDisabled","inputs":[]},{"type":"error","name":"AlreadyEnabled","inputs":[]},{"type":"error","name":"NotAllowed","inputs":[]},{"type":"error","name":"NotAllowlistManager","inputs":[]},{"type":"error","name":"ZeroAddress","inputs":[]}],"bytecode":{"object":"0x61010060405234801561001157600080fd5b506040516137f53803806137f583398101604081905261003091610144565b6001600160a01b0380851660a05280841660805280831660c052811660e0528383838361005b610068565b5050505050505050610198565b600054610100900460ff16156100d45760405162461bcd60e51b815260206004820152602760248201527f496e697469616c697a61626c653a20636f6e747261637420697320696e697469604482015266616c697a696e6760c81b606482015260840160405180910390fd5b60005460ff9081161015610126576000805460ff191660ff9081179091556040519081527f7f26b83ff96e1f2b6a682f133852f6798a09c465da95921460cefb38474024989060200160405180910390a15b565b80516001600160a01b038116811461013f57600080fd5b919050565b6000806000806080858703121561015a57600080fd5b61016385610128565b935061017160208601610128565b925061017f60408601610128565b915061018d60608601610128565b905092959194509250565b60805160a05160c05160e0516135d761021e600039600061151a0152600081816120760152818161213201526122150152600081816102b201528181611aeb01528181611b770152611bee015260008181610273015281816104ef0152818161072a01528181610e2f01528181610e85015281816113d20152611d6101526135d76000f3fe608060405234801561001057600080fd5b50600436106101e55760003560e01c80639925378f1161010f578063c942adf7116100a2578063e481af9d11610071578063e481af9d14610463578063f2fde38b1461046b578063fc299dee1461047e578063fce36c7d1461049157600080fd5b8063c942adf714610409578063cf8e629a14610430578063d190741914610438578063ded30cb91461044b57600080fd5b8063a98fb355116100de578063a98fb355146103c8578063b23b5a74146103db578063c0c53b8b146103ee578063c6a2aac81461040157600080fd5b80639925378f146103915780639926ee7d14610399578063a24ede26146103ac578063a364f4da146103b557600080fd5b8063715018a61161018757806389301dfe1161015657806389301dfe146103255780638c9bac62146103455780638da5cb5b1461037357806394c8e4ff1461038457600080fd5b8063715018a6146102d457806372faa8df146102dc57806375ccc132146102ef5780637debddda1461031257600080fd5b80634defdccf116101c35780634defdccf1461023b5780634e7f9b191461024e578063683048351461026e5780636b3aa72e146102ad57600080fd5b806333cfb7b7146101ea5780633bc28c8c14610213578063453a100914610228575b600080fd5b6101fd6101f8366004612492565b6104a4565b60405161020a91906124af565b60405180910390f35b610226610221366004612492565b6104b5565b005b610226610236366004612492565b6104c9565b61022661024936600461260f565b6104da565b61026161025c366004612667565b6108d0565b60405161020a9190612756565b6102957f000000000000000000000000000000000000000000000000000000000000000081565b6040516001600160a01b03909116815260200161020a565b6102957f000000000000000000000000000000000000000000000000000000000000000081565b610226610aab565b6102266102ea36600461285e565b610abf565b6103026102fd366004612492565b610c3b565b604051901515815260200161020a565b6101fd6103203660046128cd565b610c48565b6103386103333660046128ef565b610d6e565b60405161020a919061291b565b610365610353366004612667565b60c96020526000908152604090205481565b60405190815260200161020a565b6033546001600160a01b0316610295565b6099546103029060ff1681565b610365610e13565b6102266103a736600461292e565b610e24565b61036560cb5481565b6102266103c3366004612492565b610e7a565b6102266103d63660046129e5565b610ecb565b6102266103e9366004612a2e565b610edc565b6102266103fc366004612a91565b61110a565b610226611227565b61041c610417366004612667565b611239565b60405161020a989796959493929190612ad1565b61022661131b565b610295610446366004612667565b61132d565b6099546102959061010090046001600160a01b031681565b6101fd61133a565b610226610479366004612492565b611344565b606554610295906001600160a01b031681565b61022661049f366004612b40565b6113ba565b60606104af826113cc565b92915050565b6104bd6116b9565b6104c681611713565b50565b6104d16116b9565b6104c68161177c565b60405163ec7fbb3160e01b81523360048201527f00000000000000000000000000000000000000000000000000000000000000006001600160a01b03169063ec7fbb3190602401602060405180830381865afa15801561053e573d6000803e3d6000fd5b505050506040513d601f19601f820116820180604052508101906105629190612b81565b6105b35760405162461bcd60e51b815260206004820152601b60248201527f4f70657261746f72206d757374206265207468652063616c6c6572000000000060448201526064015b60405180910390fd5b6105bd83336117e3565b156105fa5760405162461bcd60e51b815260206004820152600d60248201526c185b1c9958591e481d9bdd1959609a1b60448201526064016105aa565b33600090815260ca6020908152604080832060cb5484529091529020805461062190612b9e565b1590506106835760405162461bcd60e51b815260206004820152602a60248201527f4f70657261746f722068617320616c726561647920726573706f6e64656420746044820152696f20746865207461736b60b01b60648201526084016105aa565b60408051602080820186905284151560f81b828401526bffffffffffffffffffffffff193360601b166041830152825180830360350181526055830184528051908201207f19457468657265756d205369676e6564204d6573736167653a0a333200000000607584015260918084018290528451808503909101815260b19093019093528151910120600090604051630b135d3f60e11b8082529192506001600160a01b037f00000000000000000000000000000000000000000000000000000000000000001690631626ba7e906107619085908890600401612bd8565b602060405180830381865afa15801561077e573d6000803e3d6000fd5b505050506040513d601f19601f820116820180604052508101906107a29190612bf1565b6001600160e01b03198281169116146107f15760405162461bcd60e51b8152602060048201526011602482015270496e76616c6964207369676e617475726560781b60448201526064016105aa565b600086815260cc6020908152604080832033845260ca835281842060cb5485529092529091206108218682612c67565b50856108435760028101805490600061083983612d3b565b919050555061085b565b60038101805490600061085583612d3b565b91905055505b600481018054600181018255600091825260209091200180546001600160a01b03191633908117909155604051610893908390612d9c565b60405190819003812060cb5490917faf110f48cb646780a67ae44a33f06547cf24ca23dc98eae6dcff32e09b48a37690600090a450505050505050565b6108d86123b8565b600082815260cc6020526040908190208151610120810190925280548290829061090190612b9e565b80601f016020809104026020016040519081016040528092919081815260200182805461092d90612b9e565b801561097a5780601f1061094f5761010080835404028352916020019161097a565b820191906000526020600020905b81548152906001019060200180831161095d57829003601f168201915b5050509183525050600182015460209091019060ff1660038111156109a1576109a16126d0565b60038111156109b2576109b26126d0565b8152600182015461010081046001600160a01b03166020830152604090910190600160a81b900460ff1660038111156109ed576109ed6126d0565b60038111156109fe576109fe6126d0565b81526020016001820160169054906101000a900460ff16151515158152602001600282015481526020016003820154815260200160048201805480602002602001604051908101604052809291908181526020018280548015610a8a57602002820191906000526020600020905b81546001600160a01b03168152600190910190602001808311610a6c575b50505091835250506005919091015463ffffffff1660209091015292915050565b610ab36116b9565b610abd6000611a19565b565b60995461010090046001600160a01b0316336001600160a01b031614610af85760405163bd0adc2d60e01b815260040160405180910390fd5b828114610b475760405162461bcd60e51b815260206004820152601c60248201527f496e70757420617272617973206c656e677468206d69736d617463680000000060448201526064016105aa565b60005b83811015610bf7576000858583818110610b6657610b66612ea1565b9050602002016020810190610b7b9190612492565b90506001600160a01b038116610ba45760405163d92e233d60e01b815260040160405180910390fd5b838383818110610bb657610bb6612ea1565b9050602002016020810190610bcb9190612eb7565b15610be157610bdb609782611a6b565b50610bee565b610bec609782611a87565b505b50600101610b4a565b507f9fbe9a594da1fe3606c91442c9f6caaa2aba26087872d8373187473f11efd40b84848484604051610c2d9493929190612ed4565b60405180910390a150505050565b60006104af609783611a9c565b60606000610c566097611abe565b9050808410610ca75760405162461bcd60e51b815260206004820152601960248201527f537461727420696e646578206f7574206f6620626f756e64730000000000000060448201526064016105aa565b6000610cb38486612f65565b905081811115610cc05750805b6000610ccc8683612f78565b9050806001600160401b03811115610ce657610ce6612509565b604051908082528060200260200182016040528015610d0f578160200160208202803683370190505b50935060005b81811015610d6457610d32610d2a8289612f65565b609790611ac8565b858281518110610d4457610d44612ea1565b6001600160a01b0390921660209283029190910190910152600101610d15565b5050505092915050565b60ca60209081526000928352604080842090915290825290208054610d9290612b9e565b80601f0160208091040260200160405190810160405280929190818152602001828054610dbe90612b9e565b8015610e0b5780601f10610de057610100808354040283529160200191610e0b565b820191906000526020600020905b815481529060010190602001808311610dee57829003601f168201915b505050505081565b6000610e1f6097611abe565b905090565b336001600160a01b037f00000000000000000000000000000000000000000000000000000000000000001614610e6c5760405162461bcd60e51b81526004016105aa90612f8b565b610e768282611ad4565b5050565b336001600160a01b037f00000000000000000000000000000000000000000000000000000000000000001614610ec25760405162461bcd60e51b81526004016105aa90612f8b565b6104c681611b58565b610ed36116b9565b6104c681611bd7565b610ee46123b8565b83815233604082015260208101826003811115610f0357610f036126d0565b90816003811115610f1657610f166126d0565b90525060608101836003811115610f2f57610f2f6126d0565b90816003811115610f4257610f426126d0565b90525063ffffffff4316610100820152604051610f63908290602001612756565b60408051601f19818403018152918152815160209283012060cb8054600090815260c985528381209290925554815260cc909252902081518291908190610faa9082612c67565b50602082015160018083018054909160ff1990911690836003811115610fd257610fd26126d0565b021790555060408201516001820180546001600160a01b0390921661010002610100600160a81b031983168117825560608501519260ff60a81b19909116610100600160b01b031990911617600160a81b836003811115611035576110356126d0565b02179055506080820151600182018054911515600160b01b0260ff60b01b1990921691909117905560a0820151600282015560c0820151600382015560e0820151805161108c916004840191602090910190612403565b5061010091909101516005909101805463ffffffff191663ffffffff9092169190911790556040516110bf90829061302a565b60405190819003812060cb5490917faa9dafaae3e38f1448c6976c5d971b2293b52b72cf260f767a996e88ae6c0dfc90600090a360cb54611101906001612f65565b60cb5550505050565b600054610100900460ff161580801561112a5750600054600160ff909116105b806111445750303b158015611144575060005460ff166001145b6111a75760405162461bcd60e51b815260206004820152602e60248201527f496e697469616c697a61626c653a20636f6e747261637420697320616c72656160448201526d191e481a5b9a5d1a585b1a5e995960921b60648201526084016105aa565b6000805460ff1916600117905580156111ca576000805461ff0019166101001790555b6111d48484611c23565b6111df826001611c5c565b8015611221576000805461ff0019169055604051600181527f7f26b83ff96e1f2b6a682f133852f6798a09c465da95921460cefb384740249890602001610c2d565b50505050565b61122f6116b9565b610abd6001611ca0565b60cc6020526000908152604090208054819061125490612b9e565b80601f016020809104026020016040519081016040528092919081815260200182805461128090612b9e565b80156112cd5780601f106112a2576101008083540402835291602001916112cd565b820191906000526020600020905b8154815290600101906020018083116112b057829003601f168201915b505050600184015460028501546003860154600590960154949560ff808416966001600160a01b036101008604169650600160a81b850482169550600160b01b909404169263ffffffff1688565b6113236116b9565b610abd6000611ca0565b60006104af609783611ac8565b6060610e1f611d5b565b61134c6116b9565b6001600160a01b0381166113b15760405162461bcd60e51b815260206004820152602660248201527f4f776e61626c653a206e6577206f776e657220697320746865207a65726f206160448201526564647265737360d01b60648201526084016105aa565b6104c681611a19565b6113c2611e98565b610e768282611f32565b606060007f00000000000000000000000000000000000000000000000000000000000000006001600160a01b0316631703a0186040518163ffffffff1660e01b8152600401600060405180830381865afa15801561142e573d6000803e3d6000fd5b505050506040513d6000823e601f3d908101601f191682016040526114569190810190613126565b8051519091506000816001600160401b0381111561147657611476612509565b60405190808252806020026020018201604052801561149f578160200160208202803683370190505b50905060005b828110156114ff5783518051829081106114c1576114c1612ea1565b6020026020010151600001518282815181106114df576114df612ea1565b6001600160a01b03909216602092830291909101909101526001016114a5565b50604051639004134760e01b81526000906001600160a01b037f000000000000000000000000000000000000000000000000000000000000000016906390041347906115519089908690600401613233565b600060405180830381865afa15801561156e573d6000803e3d6000fd5b505050506040513d6000823e601f3d908101601f191682016040526115969190810190613292565b90506000805b848110156115dc5760008382815181106115b8576115b8612ea1565b602002602001015111156115d457816115d081612d3b565b9250505b60010161159c565b506000816001600160401b038111156115f7576115f7612509565b604051908082528060200260200182016040528015611620578160200160208202803683370190505b5090506000805b868110156116ab57600085828151811061164357611643612ea1565b602002602001015111156116a35785818151811061166357611663612ea1565b602002602001015183838151811061167d5761167d612ea1565b6001600160a01b03909216602092830291909101909101528161169f81612d3b565b9250505b600101611627565b509098975050505050505050565b6033546001600160a01b03163314610abd5760405162461bcd60e51b815260206004820181905260248201527f4f776e61626c653a2063616c6c6572206973206e6f7420746865206f776e657260448201526064016105aa565b606554604080516001600160a01b03928316815291831660208301527fe11cddf1816a43318ca175bbc52cd0185436e9cbead7c83acc54a73e461717e3910160405180910390a1606580546001600160a01b0319166001600160a01b0392909216919091179055565b6099546040516001600160a01b0380841692610100900416907f6ba7ea2cd7c25f026f92ac0e1f6d6639f8b9bd703e158431d78a50b90678cd2690600090a3609980546001600160a01b0390921661010002610100600160a81b0319909216919091179055565b600082815260cc6020526040808220815161012081019092528054839291908290829061180f90612b9e565b80601f016020809104026020016040519081016040528092919081815260200182805461183b90612b9e565b80156118885780601f1061185d57610100808354040283529160200191611888565b820191906000526020600020905b81548152906001019060200180831161186b57829003601f168201915b5050509183525050600182015460209091019060ff1660038111156118af576118af6126d0565b60038111156118c0576118c06126d0565b8152600182015461010081046001600160a01b03166020830152604090910190600160a81b900460ff1660038111156118fb576118fb6126d0565b600381111561190c5761190c6126d0565b81526020016001820160169054906101000a900460ff1615151515815260200160028201548152602001600382015481526020016004820180548060200260200160405190810160405280929190818152602001828054801561199857602002820191906000526020600020905b81546001600160a01b0316815260019091019060200180831161197a575b50505091835250506005919091015463ffffffff16602090910152905060005b8160e0015151811015611a0e57836001600160a01b03168260e0015182815181106119e5576119e5612ea1565b60200260200101516001600160a01b031603611a06576001925050506104af565b6001016119b8565b506000949350505050565b603380546001600160a01b038381166001600160a01b0319831681179093556040519116919082907f8be0079c531659141344cd1fd0a4f28419497f9722a3daafe3b4186f6b6457e090600090a35050565b6000611a80836001600160a01b03841661224c565b9392505050565b6000611a80836001600160a01b03841661229b565b6001600160a01b03811660009081526001830160205260408120541515611a80565b60006104af825490565b6000611a80838361238e565b604051639926ee7d60e01b81526001600160a01b037f00000000000000000000000000000000000000000000000000000000000000001690639926ee7d90611b22908590859060040161331d565b600060405180830381600087803b158015611b3c57600080fd5b505af1158015611b50573d6000803e3d6000fd5b505050505050565b6040516351b27a6d60e11b81526001600160a01b0382811660048301527f0000000000000000000000000000000000000000000000000000000000000000169063a364f4da906024015b600060405180830381600087803b158015611bbc57600080fd5b505af1158015611bd0573d6000803e3d6000fd5b5050505050565b60405163a98fb35560e01b81526001600160a01b037f0000000000000000000000000000000000000000000000000000000000000000169063a98fb35590611ba290849060040161291b565b600054610100900460ff16611c4a5760405162461bcd60e51b81526004016105aa90613368565b611c5382611a19565b610e7681611713565b600054610100900460ff16611c835760405162461bcd60e51b81526004016105aa90613368565b611c8c8261177c565b6099805460ff191691151591909117905550565b8015611d035760995460ff1615611cca57604051637952fbad60e11b815260040160405180910390fd5b6099805460ff191660011790556040517f8a943acd5f4e6d3df7565a4a08a93f6b04cc31bb6c01ca4aef7abd6baf455ec390600090a150565b60995460ff16611d2557604051625ecddb60e01b815260040160405180910390fd5b6099805460ff191690556040517f2d35c8d348a345fd7b3b03b7cfcf7ad0b60c2d46742d5ca536342e4185becb0790600090a150565b606060007f00000000000000000000000000000000000000000000000000000000000000006001600160a01b0316631703a0186040518163ffffffff1660e01b8152600401600060405180830381865afa158015611dbd573d6000803e3d6000fd5b505050506040513d6000823e601f3d908101601f19168201604052611de59190810190613126565b905060008160000151516001600160401b03811115611e0657611e06612509565b604051908082528060200260200182016040528015611e2f578160200160208202803683370190505b50905060005b825151811015611e91578251805182908110611e5357611e53612ea1565b602002602001015160000151828281518110611e7157611e71612ea1565b6001600160a01b0390921660209283029190910190910152600101611e35565b5092915050565b6065546001600160a01b03163314610abd5760405162461bcd60e51b815260206004820152605160248201527f4543445341536572766963654d616e61676572426173652e6f6e6c795265776160448201527f726473496e69746961746f723a2063616c6c6572206973206e6f7420746865206064820152703932bbb0b932399034b734ba34b0ba37b960791b608482015260a4016105aa565b60005b818110156121fd57828282818110611f4f57611f4f612ea1565b9050602002810190611f6191906133b3565b611f72906040810190602001612492565b6001600160a01b03166323b872dd3330868686818110611f9457611f94612ea1565b9050602002810190611fa691906133b3565b604080516001600160e01b031960e087901b1681526001600160a01b039485166004820152939092166024840152013560448201526064016020604051808303816000875af1158015611ffd573d6000803e3d6000fd5b505050506040513d601f19601f820116820180604052508101906120219190612b81565b50600083838381811061203657612036612ea1565b905060200281019061204891906133b3565b612059906040810190602001612492565b604051636eb1769f60e11b81523060048201526001600160a01b037f000000000000000000000000000000000000000000000000000000000000000081166024830152919091169063dd62ed3e90604401602060405180830381865afa1580156120c7573d6000803e3d6000fd5b505050506040513d601f19601f820116820180604052508101906120eb91906133e3565b90508383838181106120ff576120ff612ea1565b905060200281019061211191906133b3565b612122906040810190602001612492565b6001600160a01b031663095ea7b37f00000000000000000000000000000000000000000000000000000000000000008387878781811061216457612164612ea1565b905060200281019061217691906133b3565b604001356121849190612f65565b6040516001600160e01b031960e085901b1681526001600160a01b03909216600483015260248201526044016020604051808303816000875af11580156121cf573d6000803e3d6000fd5b505050506040513d601f19601f820116820180604052508101906121f39190612b81565b5050600101611f35565b5060405163fce36c7d60e01b81526001600160a01b037f0000000000000000000000000000000000000000000000000000000000000000169063fce36c7d90611b229085908590600401613471565b6000818152600183016020526040812054612293575081546001818101845560008481526020808220909301849055845484825282860190935260409020919091556104af565b5060006104af565b600081815260018301602052604081205480156123845760006122bf600183612f78565b85549091506000906122d390600190612f78565b90508181146123385760008660000182815481106122f3576122f3612ea1565b906000526020600020015490508087600001848154811061231657612316612ea1565b6000918252602080832090910192909255918252600188019052604090208390555b85548690806123495761234961358b565b6001900381819060005260206000200160009055905585600101600086815260200190815260200160002060009055600193505050506104af565b60009150506104af565b60008260000182815481106123a5576123a5612ea1565b9060005260206000200154905092915050565b604080516101208101825260608082526000602083018190529282018390528082018390526080820183905260a0820183905260c0820183905260e082015261010081019190915290565b828054828255906000526020600020908101928215612458579160200282015b8281111561245857825182546001600160a01b0319166001600160a01b03909116178255602090920191600190910190612423565b50612464929150612468565b5090565b5b808211156124645760008155600101612469565b6001600160a01b03811681146104c657600080fd5b6000602082840312156124a457600080fd5b8135611a808161247d565b602080825282518282018190526000918401906040840190835b818110156124f05783516001600160a01b03168352602093840193909201916001016124c9565b509095945050505050565b80151581146104c657600080fd5b634e487b7160e01b600052604160045260246000fd5b604051602081016001600160401b038111828210171561254157612541612509565b60405290565b604080519081016001600160401b038111828210171561254157612541612509565b604051601f8201601f191681016001600160401b038111828210171561259157612591612509565b604052919050565b600082601f8301126125aa57600080fd5b8135602083016000806001600160401b038411156125ca576125ca612509565b50601f8301601f19166020016125df81612569565b9150508281528583830111156125f457600080fd5b82826020830137600092810160200192909252509392505050565b60008060006060848603121561262457600080fd5b833592506020840135612636816124fb565b915060408401356001600160401b0381111561265157600080fd5b61265d86828701612599565b9150509250925092565b60006020828403121561267957600080fd5b5035919050565b60005b8381101561269b578181015183820152602001612683565b50506000910152565b600081518084526126bc816020860160208601612680565b601f01601f19169290920160200192915050565b634e487b7160e01b600052602160045260246000fd5b600481106104c657634e487b7160e01b600052602160045260246000fd5b61270d816126e6565b9052565b600081518084526020840193506020830160005b8281101561274c5781516001600160a01b0316865260209586019590910190600101612725565b5093949350505050565b602081526000825161012060208401526127746101408401826126a4565b905060208401516127886040850182612704565b5060408401516001600160a01b03811660608501525060608401516127b06080850182612704565b50608084015180151560a08501525060a084015160c084015260c084015160e084015260e0840151601f19848303016101008501526127ef8282612711565b91505061010084015161280b61012085018263ffffffff169052565b509392505050565b60008083601f84011261282557600080fd5b5081356001600160401b0381111561283c57600080fd5b6020830191508360208260051b850101111561285757600080fd5b9250929050565b6000806000806040858703121561287457600080fd5b84356001600160401b0381111561288a57600080fd5b61289687828801612813565b90955093505060208501356001600160401b038111156128b557600080fd5b6128c187828801612813565b95989497509550505050565b600080604083850312156128e057600080fd5b50508035926020909101359150565b6000806040838503121561290257600080fd5b823561290d8161247d565b946020939093013593505050565b602081526000611a8060208301846126a4565b6000806040838503121561294157600080fd5b823561294c8161247d565b915060208301356001600160401b0381111561296757600080fd5b83016060818603121561297957600080fd5b604051606081016001600160401b038111828210171561299b5761299b612509565b60405281356001600160401b038111156129b457600080fd5b6129c087828501612599565b8252506020828101359082015260409182013591810191909152919491935090915050565b6000602082840312156129f757600080fd5b81356001600160401b03811115612a0d57600080fd5b612a1984828501612599565b949350505050565b600481106104c657600080fd5b600080600060608486031215612a4357600080fd5b83356001600160401b03811115612a5957600080fd5b612a6586828701612599565b9350506020840135612a7681612a21565b91506040840135612a8681612a21565b809150509250925092565b600080600060608486031215612aa657600080fd5b8335612ab18161247d565b92506020840135612ac18161247d565b91506040840135612a868161247d565b61010081526000612ae661010083018b6126a4565b9050612af1896126e6565b602082018990526001600160a01b0388166040830152612b10876126e6565b6060820196909652931515608085015260a084019290925260c083015263ffffffff1660e0909101529392505050565b60008060208385031215612b5357600080fd5b82356001600160401b03811115612b6957600080fd5b612b7585828601612813565b90969095509350505050565b600060208284031215612b9357600080fd5b8151611a80816124fb565b600181811c90821680612bb257607f821691505b602082108103612bd257634e487b7160e01b600052602260045260246000fd5b50919050565b828152604060208201526000612a1960408301846126a4565b600060208284031215612c0357600080fd5b81516001600160e01b031981168114611a8057600080fd5b601f821115612c6257806000526020600020601f840160051c81016020851015612c425750805b601f840160051c820191505b81811015611bd05760008155600101612c4e565b505050565b81516001600160401b03811115612c8057612c80612509565b612c9481612c8e8454612b9e565b84612c1b565b6020601f821160018114612cc85760008315612cb05750848201515b600019600385901b1c1916600184901b178455611bd0565b600084815260208120601f198516915b82811015612cf85787850151825560209485019460019092019101612cd8565b5084821015612d165786840151600019600387901b60f8161c191681555b50505050600190811b01905550565b634e487b7160e01b600052601160045260246000fd5b600060018201612d4d57612d4d612d25565b5060010190565b612d5d816126e6565b815260200190565b6000815482600052602060002060005b8281101561274c5781546001600160a01b0316865260209095019460019182019101612d75565b6000808354612daa81612b9e565b600182168015612dc15760018114612dd757612e05565b60ff198316865281151560051b86019350612e05565b86600052602060002060005b83811015612dff57815488820152600190910190602001612de3565b87019450505b5050506001840154612e98612e85612e7c612e6f612e62612e51612e45612e2f8960ff8a16612d54565b6001600160a01b0360088a901c16815260200190565b60ff8860a81c16612d54565b60ff8760b01c161515815260200190565b60028a0154815260200190565b6003890154815260200190565b60048801612d65565b600587015463ffffffff16815260200190565b95945050505050565b634e487b7160e01b600052603260045260246000fd5b600060208284031215612ec957600080fd5b8135611a80816124fb565b6040808252810184905260008560608301825b87811015612f17578235612efa8161247d565b6001600160a01b0316825260209283019290910190600101612ee7565b508381036020808601919091528582520190508460005b85811015612f58578135612f41816124fb565b151583526020928301929190910190600101612f2e565b5090979650505050505050565b808201808211156104af576104af612d25565b818103818111156104af576104af612d25565b6020808252604a908201527f4543445341536572766963654d616e61676572426173652e6f6e6c795374616b60408201527f6552656769737472793a2063616c6c6572206973206e6f7420746865207374616060820152696b65526567697374727960b01b608082015260a00190565b80516000906020830182821561274c5781516001600160a01b0316865260209586019590910190600101612725565b60008251805161303e818560208501612680565b601f19601f82011684019150506020840151613059816126e6565b808252506040840151602082019150600060018060a01b03821683526020830190506130df6130cb6130c16130b46130a76130988660608d0151612d54565b60808c01511515815260200190565b60a08b0151815260200190565b60c08a0151815260200190565b60e0890151612ffb565b61010088015163ffffffff16815260200190565b9695505050505050565b60006001600160401b0382111561310257613102612509565b5060051b60200190565b6bffffffffffffffffffffffff811681146104c657600080fd5b60006020828403121561313857600080fd5b81516001600160401b0381111561314e57600080fd5b82016020818503121561316057600080fd5b61316861251f565b81516001600160401b0381111561317e57600080fd5b80830192505084601f83011261319357600080fd5b81516131a66131a1826130e9565b612569565b8082825260208201915060208360061b8601019250878311156131c857600080fd5b6020850194505b8285101561322657604085890312156131e757600080fd5b6131ef612547565b85516131fa8161247d565b8152602086015161320a8161310c565b80602083015250808352506020820191506040850194506131cf565b8352509095945050505050565b6001600160a01b0383168152604060208083018290528351918301829052600091908401906060840190835b818110156132865783516001600160a01b031683526020938401939092019160010161325f565b50909695505050505050565b6000602082840312156132a457600080fd5b81516001600160401b038111156132ba57600080fd5b8201601f810184136132cb57600080fd5b80516132d96131a1826130e9565b8082825260208201915060208360051b8501019250868311156132fb57600080fd5b6020840193505b828410156130df578351825260209384019390910190613302565b60018060a01b038316815260406020820152600082516060604084015261334760a08401826126a4565b90506020840151606084015260408401516080840152809150509392505050565b6020808252602b908201527f496e697469616c697a61626c653a20636f6e7472616374206973206e6f74206960408201526a6e697469616c697a696e6760a81b606082015260800190565b60008235609e198336030181126133c957600080fd5b9190910192915050565b80356133de8161247d565b919050565b6000602082840312156133f557600080fd5b5051919050565b81835260208301925060008160005b8481101561274c57813561341e8161247d565b6001600160a01b0316865260208201356134378161310c565b6bffffffffffffffffffffffff166020870152604095860195919091019060010161340b565b803563ffffffff811681146133de57600080fd5b6020808252810182905260006040600584901b830181019083018583609e1936839003015b8782101561357e57868503603f1901845282358181126134b557600080fd5b8901803536829003601e190181126134cc57600080fd5b81016020810190356001600160401b038111156134e857600080fd5b8060061b36038213156134fa57600080fd5b60a0885261350c60a0890182846133fc565b91505061351b602083016133d3565b6001600160a01b031660208801526040828101359088015261353f6060830161345d565b63ffffffff1660608801526135566080830161345d565b63ffffffff811660808901529150955050602093840193929092019160019190910190613496565b5092979650505050505050565b634e487b7160e01b600052603160045260246000fdfea2646970667358221220b2ad1a3f5c77109b25e6245d7ac089ebacae4bcbd214cb351533948e451c456f64736f6c634300081a0033","linkReferences":{}},"methodIdentifiers":{"allTaskHashes(uint256)":"8c9bac62","allTaskResponses(address,uint256)":"89301dfe","allowlistEnabled()":"94c8e4ff","allowlistManager()":"ded30cb9","avsDirectory()":"6b3aa72e","createAVSRewardsSubmission(((address,uint96)[],address,uint256,uint32,uint32)[])":"fce36c7d","createNewTask(string,uint8,uint8)":"b23b5a74","deregisterOperatorFromAVS(address)":"a364f4da","disableAllowlist()":"cf8e629a","enableAllowlist()":"c6a2aac8","getAllowlistAtIndex(uint256)":"d1907419","getAllowlistSize()":"9925378f","getOperatorRestakedStrategies(address)":"33cfb7b7","getReport(uint256)":"4e7f9b19","getRestakeableStrategies()":"e481af9d","initialize(address,address,address)":"c0c53b8b","isOperatorAllowed(address)":"75ccc132","numReports()":"a24ede26","owner()":"8da5cb5b","queryOperators(uint256,uint256)":"7debddda","registerOperatorToAVS(address,(bytes,bytes32,uint256))":"9926ee7d","renounceOwnership()":"715018a6","reports(uint256)":"c942adf7","respondToTask(uint256,bool,bytes)":"4defdccf","rewardsInitiator()":"fc299dee","setAllowlist(address[],bool[])":"72faa8df","setAllowlistManager(address)":"453a1009","setRewardsInitiator(address)":"3bc28c8c","stakeRegistry()":"68304835","transferOwnership(address)":"f2fde38b","updateAVSMetadataURI(string)":"a98fb355"},"id":29}