{"abi":[{"type":"constructor","inputs":[{"name":"_delegationManager","type":"address","internalType":"contract IDelegationManager"}],"stateMutability":"nonpayable"},{"type":"function","name":"deregisterOperator","inputs":[],"outputs":[],"stateMutability":"nonpayable"},{"type":"function","name":"getLastCheckpointOperatorWeight","inputs":[{"name":"_operator","type":"address","internalType":"address"}],"outputs":[{"name":"","type":"uint256","internalType":"uint256"}],"stateMutability":"view"},{"type":"function","name":"getLastCheckpointThresholdWeight","inputs":[],"outputs":[{"name":"","type":"uint256","internalType":"uint256"}],"stateMutability":"view"},{"type":"function","name":"getLastCheckpointThresholdWeightAtBlock","inputs":[{"name":"_blockNumber","type":"uint32","internalType":"uint32"}],"outputs":[{"name":"","type":"uint256","internalType":"uint256"}],"stateMutability":"view"},{"type":"function","name":"getLastCheckpointTotalWeight","inputs":[],"outputs":[{"name":"","type":"uint256","internalType":"uint256"}],"stateMutability":"view"},{"type":"function","name":"getLastCheckpointTotalWeightAtBlock","inputs":[{"name":"_blockNumber","type":"uint32","internalType":"uint32"}],"outputs":[{"name":"","type":"uint256","internalType":"uint256"}],"stateMutability":"view"},{"type":"function","name":"getLastestOperatorSigningKey","inputs":[{"name":"_operator","type":"address","internalType":"address"}],"outputs":[{"name":"","type":"address","internalType":"address"}],"stateMutability":"view"},{"type":"function","name":"getOperatorSigningKeyAtBlock","inputs":[{"name":"_operator","type":"address","internalType":"address"},{"name":"_blockNumber","type":"uint256","internalType":"uint256"}],"outputs":[{"name":"","type":"address","internalType":"address"}],"stateMutability":"view"},{"type":"function","name":"getOperatorWeight","inputs":[{"name":"_operator","type":"address","internalType":"address"}],"outputs":[{"name":"","type":"uint256","internalType":"uint256"}],"stateMutability":"view"},{"type":"function","name":"getOperatorWeightAtBlock","inputs":[{"name":"_operator","type":"address","internalType":"address"},{"name":"_blockNumber","type":"uint32","internalType":"uint32"}],"outputs":[{"name":"","type":"uint256","internalType":"uint256"}],"stateMutability":"view"},{"type":"function","name":"initialize","inputs":[{"name":"_serviceManager","type":"address","internalType":"address"},{"name":"_thresholdWeight","type":"uint256","internalType":"uint256"},{"name":"_quorum","type":"tuple","internalType":"struct Quorum","components":[{"name":"strategies","type":"tuple[]","internalType":"struct StrategyParams[]","components":[{"name":"strategy","type":"address","internalType":"contract IStrategy"},{"name":"multiplier","type":"uint96","internalType":"uint96"}]}]}],"outputs":[],"stateMutability":"nonpayable"},{"type":"function","name":"isValidSignature","inputs":[{"name":"_dataHash","type":"bytes32","internalType":"bytes32"},{"name":"_signatureData","type":"bytes","internalType":"bytes"}],"outputs":[{"name":"","type":"bytes4","internalType":"bytes4"}],"stateMutability":"view"},{"type":"function","name":"minimumWeight","inputs":[],"outputs":[{"name":"","type":"uint256","internalType":"uint256"}],"stateMutability":"view"},{"type":"function","name":"operatorRegistered","inputs":[{"name":"_operator","type":"address","internalType":"address"}],"outputs":[{"name":"","type":"bool","internalType":"bool"}],"stateMutability":"view"},{"type":"function","name":"owner","inputs":[],"outputs":[{"name":"","type":"address","internalType":"address"}],"stateMutability":"view"},{"type":"function","name":"quorum","inputs":[],"outputs":[{"name":"","type":"tuple","internalType":"struct Quorum","components":[{"name":"strategies","type":"tuple[]","internalType":"struct StrategyParams[]","components":[{"name":"strategy","type":"address","internalType":"contract IStrategy"},{"name":"multiplier","type":"uint96","internalType":"uint96"}]}]}],"stateMutability":"view"},{"type":"function","name":"registerOperatorWithSignature","inputs":[{"name":"_operatorSignature","type":"tuple","internalType":"struct ISignatureUtils.SignatureWithSaltAndExpiry","components":[{"name":"signature","type":"bytes","internalType":"bytes"},{"name":"salt","type":"bytes32","internalType":"bytes32"},{"name":"expiry","type":"uint256","internalType":"uint256"}]},{"name":"_signingKey","type":"address","internalType":"address"}],"outputs":[],"stateMutability":"nonpayable"},{"type":"function","name":"renounceOwnership","inputs":[],"outputs":[],"stateMutability":"nonpayable"},{"type":"function","name":"transferOwnership","inputs":[{"name":"newOwner","type":"address","internalType":"address"}],"outputs":[],"stateMutability":"nonpayable"},{"type":"function","name":"updateMinimumWeight","inputs":[{"name":"_newMinimumWeight","type":"uint256","internalType":"uint256"},{"name":"_operators","type":"address[]","internalType":"address[]"}],"outputs":[],"stateMutability":"nonpayable"},{"type":"function","name":"updateOperatorSigningKey","inputs":[{"name":"_newSigningKey","type":"address","internalType":"address"}],"outputs":[],"stateMutability":"nonpayable"},{"type":"function","name":"updateOperators","inputs":[{"name":"_operators","type":"address[]","internalType":"address[]"}],"outputs":[],"stateMutability":"nonpayable"},{"type":"function","name":"updateOperatorsForQuorum","inputs":[{"name":"operatorsPerQuorum","type":"address[][]","internalType":"address[][]"},{"name":"","type":"bytes","internalType":"bytes"}],"outputs":[],"stateMutability":"nonpayable"},{"type":"function","name":"updateQuorumConfig","inputs":[{"name":"_quorum","type":"tuple","internalType":"struct Quorum","components":[{"name":"strategies","type":"tuple[]","internalType":"struct StrategyParams[]","components":[{"name":"strategy","type":"address","internalType":"contract IStrategy"},{"name":"multiplier","type":"uint96","internalType":"uint96"}]}]},{"name":"_operators","type":"address[]","internalType":"address[]"}],"outputs":[],"stateMutability":"nonpayable"},{"type":"function","name":"updateStakeThreshold","inputs":[{"name":"_thresholdWeight","type":"uint256","internalType":"uint256"}],"outputs":[],"stateMutability":"nonpayable"},{"type":"event","name":"Initialized","inputs":[{"name":"version","type":"uint8","indexed":false,"internalType":"uint8"}],"anonymous":false},{"type":"event","name":"MinimumWeightUpdated","inputs":[{"name":"_old","type":"uint256","indexed":false,"internalType":"uint256"},{"name":"_new","type":"uint256","indexed":false,"internalType":"uint256"}],"anonymous":false},{"type":"event","name":"OperatorDeregistered","inputs":[{"name":"_operator","type":"address","indexed":true,"internalType":"address"},{"name":"_avs","type":"address","indexed":true,"internalType":"address"}],"anonymous":false},{"type":"event","name":"OperatorRegistered","inputs":[{"name":"_operator","type":"address","indexed":true,"internalType":"address"},{"name":"_avs","type":"address","indexed":true,"internalType":"address"}],"anonymous":false},{"type":"event","name":"OperatorWeightUpdated","inputs":[{"name":"_operator","type":"address","indexed":true,"internalType":"address"},{"name":"oldWeight","type":"uint256","indexed":false,"internalType":"uint256"},{"name":"newWeight","type":"uint256","indexed":false,"internalType":"uint256"}],"anonymous":false},{"type":"event","name":"OwnershipTransferred","inputs":[{"name":"previousOwner","type":"address","indexed":true,"internalType":"address"},{"name":"newOwner","type":"address","indexed":true,"internalType":"address"}],"anonymous":false},{"type":"event","name":"QuorumUpdated","inputs":[{"name":"_old","type":"tuple","indexed":false,"internalType":"struct Quorum","components":[{"name":"strategies","type":"tuple[]","internalType":"struct StrategyParams[]","components":[{"name":"strategy","type":"address","internalType":"contract IStrategy"},{"name":"multiplier","type":"uint96","internalType":"uint96"}]}]},{"name":"_new","type":"tuple","indexed":false,"internalType":"struct Quorum","components":[{"name":"strategies","type":"tuple[]","internalType":"struct StrategyParams[]","components":[{"name":"strategy","type":"address","internalType":"contract IStrategy"},{"name":"multiplier","type":"uint96","internalType":"uint96"}]}]}],"anonymous":false},{"type":"event","name":"SigningKeyUpdate","inputs":[{"name":"operator","type":"address","indexed":true,"internalType":"address"},{"name":"updateBlock","type":"uint256","indexed":true,"internalType":"uint256"},{"name":"newSigningKey","type":"address","indexed":true,"internalType":"address"},{"name":"oldSigningKey","type":"address","indexed":false,"internalType":"address"}],"anonymous":false},{"type":"event","name":"ThresholdWeightUpdated","inputs":[{"name":"_thresholdWeight","type":"uint256","indexed":false,"internalType":"uint256"}],"anonymous":false},{"type":"event","name":"TotalWeightUpdated","inputs":[{"name":"oldTotalWeight","type":"uint256","indexed":false,"internalType":"uint256"},{"name":"newTotalWeight","type":"uint256","indexed":false,"internalType":"uint256"}],"anonymous":false},{"type":"event","name":"UpdateMinimumWeight","inputs":[{"name":"oldMinimumWeight","type":"uint256","indexed":false,"internalType":"uint256"},{"name":"newMinimumWeight","type":"uint256","indexed":false,"internalType":"uint256"}],"anonymous":false},{"type":"error","name":"InsufficientSignedStake","inputs":[]},{"type":"error","name":"InsufficientWeight","inputs":[]},{"type":"error","name":"InvalidLength","inputs":[]},{"type":"error","name":"InvalidQuorum","inputs":[]},{"type":"error","name":"InvalidReferenceBlock","inputs":[]},{"type":"error","name":"InvalidSignature","inputs":[]},{"type":"error","name":"InvalidSignedWeight","inputs":[]},{"type":"error","name":"InvalidThreshold","inputs":[]},{"type":"error","name":"LengthMismatch","inputs":[]},{"type":"error","name":"MustUpdateAllOperators","inputs":[]},{"type":"error","name":"NotSorted","inputs":[]},{"type":"error","name":"OperatorAlreadyRegistered","inputs":[]},{"type":"error","name":"OperatorNotRegistered","inputs":[]}],"bytecode":{"object":"0x60a0604052348015600f57600080fd5b5060405161291b38038061291b833981016040819052602c91603c565b6001600160a01b0316608052606a565b600060208284031215604d57600080fd5b81516001600160a01b0381168114606357600080fd5b9392505050565b608051612896610085600039600061070f01526128966000f3fe608060405234801561001057600080fd5b50600436106101725760003560e01c8063696255be116100de57806398ec1ac911610097578063cdcd358111610071578063cdcd358114610315578063dec5d1f614610328578063ec7fbb311461033b578063f2fde38b1461037757600080fd5b806398ec1ac9146102e7578063ab118995146102fa578063b933fa741461030d57600080fd5b8063696255be1461028d578063715018a6146102a0578063743c31f4146102a8578063857dc190146102bb5780638da5cb5b146102c3578063955f2d90146102d457600080fd5b80633b242e4a116101305780633b242e4a1461020e5780633d5611f61461022157806340bf2fb7146102345780635140a5481461023c5780635e1042e81461024f5780635ef533291461027a57600080fd5b8062cf2ab5146101775780630dba33941461018c5780631626ba7e146101b25780631703a018146101de5780631e4cd85e146101f3578063314f3a4914610206575b600080fd5b61018a610185366004611dbb565b61038a565b005b61019f61019a366004611e09565b610396565b6040519081526020015b60405180910390f35b6101c56101c0366004611e9e565b6103b2565b6040516001600160e01b031990911681526020016101a9565b6101e66103f0565b6040516101a99190611f42565b61019f610201366004611e09565b610483565b61019f610499565b61019f61021c366004611f55565b6104aa565b61018a61022f366004611f72565b6104cb565b60675461019f565b61018a61024a366004612027565b6104da565b61026261025d3660046120f1565b6104fd565b6040516001600160a01b0390911681526020016101a9565b61018a61028836600461211d565b610526565b61018a61029b366004612136565b610537565b61018a610551565b61018a6102b6366004611f55565b610565565b61018a61059f565b6033546001600160a01b0316610262565b61019f6102e2366004612172565b6105a8565b61019f6102f5366004611f55565b6105d3565b61018a610308366004612289565b610826565b61019f610942565b610262610323366004611f55565b61094e565b61018a6103363660046122e1565b61096f565b610367610349366004611f55565b6001600160a01b03166000908152606e602052604090205460ff1690565b60405190151581526020016101a9565b61018a610385366004611f55565b610980565b610393816109f6565b50565b60006103ac606b63ffffffff80851690610a4316565b92915050565b600080600080848060200190518101906103cc9190612422565b9250925092506103de86848484610b52565b50630b135d3f60e11b95945050505050565b6040805160208101909152606081526040805160668054602081810284018501855283018181529293919284929091849160009085015b8282101561047657600084815260209081902060408051808201909152908401546001600160a01b0381168252600160a01b90046001600160601b031681830152825260019092019101610427565b5050505081525050905090565b60006103ac606c63ffffffff80851690610a4316565b60006104a5606b610c06565b905090565b6001600160a01b0381166000908152606d602052604081206103ac90610c06565b6104d6338383610c62565b5050565b6104d6826000815181106104f0576104f06124fd565b6020026020010151610d9a565b6001600160a01b0382166000908152606a6020526040812061051f9083610a43565b9392505050565b61052e610dbd565b61039381610e17565b61053f610dbd565b61054882610e5a565b6104d6816109f6565b610559610dbd565b6105636000610ea0565b565b336000908152606e602052604090205460ff16610595576040516325ec6c1f60e01b815260040160405180910390fd5b6103933382610ef2565b61056333610fa4565b6001600160a01b0382166000908152606d6020526040812061051f9063ffffffff80851690610a4316565b6000806066600001805480602002602001604051908101604052809291908181526020016000905b8282101561064a57600084815260209081902060408051808201909152908401546001600160a01b0381168252600160a01b90046001600160601b0316818301528252600190920191016105fb565b50505050905060008082516001600160401b0381111561066c5761066c611c7d565b604051908082528060200260200182016040528015610695578160200160208202803683370190505b50905060005b83518110156106f4578381815181106106b6576106b66124fd565b6020026020010151600001518282815181106106d4576106d46124fd565b6001600160a01b039092166020928302919091019091015260010161069b565b50604051639004134760e01b81526000906001600160a01b037f000000000000000000000000000000000000000000000000000000000000000016906390041347906107469089908690600401612513565b600060405180830381865afa158015610763573d6000803e3d6000fd5b505050506040513d6000823e601f3d908101601f1916820160405261078b9190810190612572565b905060005b84518110156107f8578481815181106107ab576107ab6124fd565b6020026020010151602001516001600160601b03168282815181106107d2576107d26124fd565b60200260200101516107e4919061261d565b6107ee9085612634565b9350600101610790565b5061080561271084612647565b9250606754831061081a575090949350505050565b50600095945050505050565b600054610100900460ff16158080156108465750600054600160ff909116105b806108605750303b158015610860575060005460ff166001145b6108c85760405162461bcd60e51b815260206004820152602e60248201527f496e697469616c697a61626c653a20636f6e747261637420697320616c72656160448201526d191e481a5b9a5d1a585b1a5e995960921b60648201526084015b60405180910390fd5b6000805460ff1916600117905580156108eb576000805461ff0019166101001790555b6108f68484846110c7565b801561093c576000805461ff0019169055604051600181527f7f26b83ff96e1f2b6a682f133852f6798a09c465da95921460cefb38474024989060200160405180910390a15b50505050565b60006104a5606c610c06565b6001600160a01b0381166000908152606a602052604081206103ac90610c06565b610977610dbd565b61054882611128565b610988610dbd565b6001600160a01b0381166109ed5760405162461bcd60e51b815260206004820152602660248201527f4f776e61626c653a206e6577206f776e657220697320746865207a65726f206160448201526564647265737360d01b60648201526084016108bf565b61039381610ea0565b6000805b8251811015610a3957610a25838281518110610a1857610a186124fd565b602002602001015161127f565b610a2f9083612669565b91506001016109fa565b5061093c816113a8565b6000438210610a945760405162461bcd60e51b815260206004820181905260248201527f436865636b706f696e74733a20626c6f636b206e6f7420796574206d696e656460448201526064016108bf565b825460005b81811015610af9576000610aad8284611414565b905084866000018281548110610ac557610ac56124fd565b60009182526020909120015463ffffffff161115610ae557809250610af3565b610af0816001612634565b91505b50610a99565b8115610b3d5784610b0b600184612691565b81548110610b1b57610b1b6124fd565b60009182526020909120015464010000000090046001600160e01b0316610b40565b60005b6001600160e01b031695945050505050565b600083519050600080600080610b6985885161142f565b60005b85811015610bf057888181518110610b8657610b866124fd565b60200260200101519450610b9a8588611473565b9250610ba684866114c6565b610bca838b8a8481518110610bbd57610bbd6124fd565b60200260200101516114f8565b8493506000610bd98689611529565b9050610be58184612634565b925050600101610b6c565b50610bfb818761157c565b505050505050505050565b80546000908015610c4f5782610c1d600183612691565b81548110610c2d57610c2d6124fd565b60009182526020909120015464010000000090046001600160e01b0316610c52565b60005b6001600160e01b03169392505050565b6001600160a01b0383166000908152606e602052604090205460ff1615610c9c576040516342ee68b560e01b815260040160405180910390fd5b60658054906000610cac836126a4565b90915550506001600160a01b0383166000908152606e60205260408120805460ff19166001179055610cdd8461127f565b9050610ce8816113a8565b5050610cf48483610ef2565b606854604051639926ee7d60e01b81526001600160a01b0390911690639926ee7d90610d2690879087906004016126e9565b600060405180830381600087803b158015610d4057600080fd5b505af1158015610d54573d6000803e3d6000fd5b50506068546040516001600160a01b03918216935090871691507fa453db612af59e5521d6ab9284dc3e2d06af286eb1b1b7b771fce4716c19f2c190600090a350505050565b60655481511461038a5760405163169efb5b60e11b815260040160405180910390fd5b6033546001600160a01b031633146105635760405162461bcd60e51b815260206004820181905260248201527f4f776e61626c653a2063616c6c6572206973206e6f7420746865206f776e657260448201526064016108bf565b610e22606c826115d8565b50506040518181527f9324f7e5a7c0288808a634ccde44b8e979676474b22e29ee9dd569b55e791a4b9060200160405180910390a150565b606780549082905560408051828152602081018490527f713ca53b88d6eb63f5b1854cb8cbdd736ec51eda225e46791aa9298b0160648f91015b60405180910390a15050565b603380546001600160a01b038381166001600160a01b0319831681179093556040519116919082907f8be0079c531659141344cd1fd0a4f28419497f9722a3daafe3b4186f6b6457e090600090a35050565b6001600160a01b0382166000908152606a60205260408120610f1390610c06565b9050806001600160a01b0316826001600160a01b031603610f3357505050565b6001600160a01b038381166000908152606a60205260409020610f579184166115d8565b50506040516001600160a01b0382811682528084169143918616907fd061168252f441733658f09e4d8f5b2d998ed4ef24a2bbfd6ceca52ea13150029060200160405180910390a4505050565b6001600160a01b0381166000908152606e602052604090205460ff16610fdd576040516325ec6c1f60e01b815260040160405180910390fd5b60658054906000610fed83612734565b90915550506001600160a01b0381166000908152606e60205260408120805460ff1916905561101b8261127f565b9050611026816113a8565b50506068546040516351b27a6d60e11b81526001600160a01b0384811660048301529091169063a364f4da90602401600060405180830381600087803b15801561106f57600080fd5b505af1158015611083573d6000803e3d6000fd5b50506068546040516001600160a01b03918216935090851691507f31e0adfec71bccee37b6e83a90c2fedb17d8f1693fee863c4771e7bfe2aed58090600090a35050565b600054610100900460ff166110ee5760405162461bcd60e51b81526004016108bf9061274b565b606880546001600160a01b0319166001600160a01b03851617905561111282610e17565b61111b81611128565b611123611703565b505050565b61113181611732565b61114e5760405163d173577960e01b815260040160405180910390fd5b60408051606680546020818102840185018552830181815260009484928491879085015b828210156111c157600084815260209081902060408051808201909152908401546001600160a01b0381168252600160a01b90046001600160601b031681830152825260019092019101611172565b5050509152509091506066905060006111da8282611c4f565b505060005b82515181101561124d57825180516066919083908110611201576112016124fd565b602090810291909101810151825460018181018555600094855293839020825192909301516001600160601b0316600160a01b026001600160a01b0390921691909117910155016111df565b507f23aad4e61744ece164130aa415c1616e80136b0f0770e56589438b90b269265e8183604051610e94929190612796565b6001600160a01b0381166000908152606d602052604081208190819081906112a690610c06565b6001600160a01b0386166000908152606e602052604090205490915060ff1661130e576112d381846127c4565b9250826000036112e65750909392505050565b6001600160a01b0385166000908152606d60205260408120611307916115d8565b505061135b565b611317856105d3565b915061132381836127c4565b9250826000036113365750909392505050565b6001600160a01b0385166000908152606d6020526040902061135890836115d8565b50505b60408051828152602081018490526001600160a01b038716917f88770dc862e47a7ed586907857eb1b75e4c5ffc8b707c7ee10eb74d6885fe594910160405180910390a250909392505050565b6000806113b5606b610c06565b915060006113c38484612669565b91508190506113d3606b826115d8565b505060408051848152602081018490527f86dcf86b12dfeedea74ae9300dbdaa193bcce5809369c8177ea2f4eaaa65729b910160405180910390a150915091565b60006114236002848418612647565b61051f90848416612634565b808214611452576040516001621398b960e31b0319815260040160405180910390fd5b816000036104d65760405163251f56a160e21b815260040160405180910390fd5b6000438263ffffffff161061149b5760405163e64f180f60e01b815260040160405180910390fd5b6001600160a01b0383166000908152606a6020526040902061051f9063ffffffff80851690610a4316565b806001600160a01b0316826001600160a01b0316106104d65760405163ba50f91160e01b815260040160405180910390fd5b61150c6001600160a01b03841683836117f8565b61112357604051638baa579f60e01b815260040160405180910390fd5b6000438263ffffffff16106115515760405163e64f180f60e01b815260040160405180910390fd5b6001600160a01b0383166000908152606d6020526040902061051f9063ffffffff80851690610a4316565b600061158782611944565b9050808311156115aa57604051634b05a0f760e11b815260040160405180910390fd5b60006115b583611980565b90508381111561093c5760405163e121632f60e01b815260040160405180910390fd5b81546000908190816115e986610c06565b905060008211801561162757504386611603600185612691565b81548110611613576116136124fd565b60009182526020909120015463ffffffff16145b1561168757611635856119bc565b86611641600185612691565b81548110611651576116516124fd565b9060005260206000200160000160046101000a8154816001600160e01b0302191690836001600160e01b031602179055506116f5565b85600001604051806040016040528061169f43611a29565b63ffffffff1681526020016116b3886119bc565b6001600160e01b0390811690915282546001810184556000938452602093849020835194909301519091166401000000000263ffffffff909316929092179101555b9250839150505b9250929050565b600054610100900460ff1661172a5760405162461bcd60e51b81526004016108bf9061274b565b610563611a8e565b8051600090818080805b84518110156117d657848181518110611757576117576124fd565b6020026020010151600001519250826001600160a01b0316846001600160a01b0316106117975760405163ba50f91160e01b815260040160405180910390fd5b8293508481815181106117ac576117ac6124fd565b6020026020010151602001516001600160601b0316826117cc9190612634565b915060010161173c565b5061271081146117ec5750600095945050505050565b50600195945050505050565b60008060006118078585611abe565b90925090506000816004811115611820576118206127eb565b14801561183e5750856001600160a01b0316826001600160a01b0316145b1561184e5760019250505061051f565b600080876001600160a01b0316631626ba7e60e01b8888604051602401611876929190612801565b60408051601f198184030181529181526020820180516001600160e01b03166001600160e01b03199094169390931790925290516118b4919061281a565b600060405180830381855afa9150503d80600081146118ef576040519150601f19603f3d011682016040523d82523d6000602084013e6118f4565b606091505b5091509150818015611907575080516020145b801561193857508051630b135d3f60e11b9061192c9083016020908101908401612836565b6001600160e01b031916145b98975050505050505050565b6000438263ffffffff161061196c5760405163e64f180f60e01b815260040160405180910390fd5b6103ac606b63ffffffff80851690610a4316565b6000438263ffffffff16106119a85760405163e64f180f60e01b815260040160405180910390fd5b6103ac606c63ffffffff80851690610a4316565b60006001600160e01b03821115611a255760405162461bcd60e51b815260206004820152602760248201527f53616665436173743a2076616c756520646f65736e27742066697420696e20326044820152663234206269747360c81b60648201526084016108bf565b5090565b600063ffffffff821115611a255760405162461bcd60e51b815260206004820152602660248201527f53616665436173743a2076616c756520646f65736e27742066697420696e203360448201526532206269747360d01b60648201526084016108bf565b600054610100900460ff16611ab55760405162461bcd60e51b81526004016108bf9061274b565b61056333610ea0565b6000808251604103611af45760208301516040840151606085015160001a611ae887828585611b29565b945094505050506116fc565b8251604003611b1d5760208301516040840151611b12868383611c16565b9350935050506116fc565b506000905060026116fc565b6000807f7fffffffffffffffffffffffffffffff5d576e7357a4501ddfe92f46681b20a0831115611b605750600090506003611c0d565b8460ff16601b14158015611b7857508460ff16601c14155b15611b895750600090506004611c0d565b6040805160008082526020820180845289905260ff881692820192909252606081018690526080810185905260019060a0016020604051602081039080840390855afa158015611bdd573d6000803e3d6000fd5b5050604051601f1901519150506001600160a01b038116611c0657600060019250925050611c0d565b9150600090505b94509492505050565b6000806001600160ff1b03831681611c3360ff86901c601b612634565b9050611c4187828885611b29565b935093505050935093915050565b508054600082559060005260206000209081019061039391905b80821115611a255760008155600101611c69565b634e487b7160e01b600052604160045260246000fd5b604051602081016001600160401b0381118282101715611cb557611cb5611c7d565b60405290565b604080519081016001600160401b0381118282101715611cb557611cb5611c7d565b604051601f8201601f191681016001600160401b0381118282101715611d0557611d05611c7d565b604052919050565b60006001600160401b03821115611d2657611d26611c7d565b5060051b60200190565b6001600160a01b038116811461039357600080fd5b600082601f830112611d5657600080fd5b8135611d69611d6482611d0d565b611cdd565b8082825260208201915060208360051b860101925085831115611d8b57600080fd5b602085015b83811015611db1578035611da381611d30565b835260209283019201611d90565b5095945050505050565b600060208284031215611dcd57600080fd5b81356001600160401b03811115611de357600080fd5b611def84828501611d45565b949350505050565b63ffffffff8116811461039357600080fd5b600060208284031215611e1b57600080fd5b813561051f81611df7565b60006001600160401b03821115611e3f57611e3f611c7d565b50601f01601f191660200190565b600082601f830112611e5e57600080fd5b8135611e6c611d6482611e26565b818152846020838601011115611e8157600080fd5b816020850160208301376000918101602001919091529392505050565b60008060408385031215611eb157600080fd5b8235915060208301356001600160401b03811115611ece57600080fd5b611eda85828601611e4d565b9150509250929050565b80516020808452815184820181905260009290910190829060408601905b80831015611db157835180516001600160a01b031683526020908101516001600160601b0316818401529093019260019290920191604090910190611f02565b60208152600061051f6020830184611ee4565b600060208284031215611f6757600080fd5b813561051f81611d30565b60008060408385031215611f8557600080fd5b82356001600160401b03811115611f9b57600080fd5b830160608186031215611fad57600080fd5b604051606081016001600160401b0381118282101715611fcf57611fcf611c7d565b60405281356001600160401b03811115611fe857600080fd5b611ff487828501611e4d565b8252506020828101358183015260409283013592820192909252925083013561201c81611d30565b809150509250929050565b6000806040838503121561203a57600080fd5b82356001600160401b0381111561205057600080fd5b8301601f8101851361206157600080fd5b803561206f611d6482611d0d565b8082825260208201915060208360051b85010192508783111561209157600080fd5b602084015b838110156120d25780356001600160401b038111156120b457600080fd5b6120c38a602083890101611d45565b84525060209283019201612096565b50945050505060208301356001600160401b03811115611ece57600080fd5b6000806040838503121561210457600080fd5b823561210f81611d30565b946020939093013593505050565b60006020828403121561212f57600080fd5b5035919050565b6000806040838503121561214957600080fd5b8235915060208301356001600160401b0381111561216657600080fd5b611eda85828601611d45565b6000806040838503121561218557600080fd5b823561219081611d30565b9150602083013561201c81611df7565b6000602082840312156121b257600080fd5b6121ba611c93565b905081356001600160401b038111156121d257600080fd5b8201601f810184136121e357600080fd5b80356121f1611d6482611d0d565b8082825260208201915060208360061b85010192508683111561221357600080fd5b6020840193505b8284101561227d576040848803121561223257600080fd5b61223a611cbb565b843561224581611d30565b815260208501356001600160601b038116811461226157600080fd5b806020830152508083525060208201915060408401935061221a565b84525091949350505050565b60008060006060848603121561229e57600080fd5b83356122a981611d30565b92506020840135915060408401356001600160401b038111156122cb57600080fd5b6122d7868287016121a0565b9150509250925092565b600080604083850312156122f457600080fd5b82356001600160401b0381111561230a57600080fd5b612316858286016121a0565b92505060208301356001600160401b0381111561216657600080fd5b60005b8381101561234d578181015183820152602001612335565b50506000910152565b600082601f83011261236757600080fd5b8151612375611d6482611d0d565b8082825260208201915060208360051b86010192508583111561239757600080fd5b602085015b83811015611db15780516001600160401b038111156123ba57600080fd5b8601603f810188136123cb57600080fd5b60208101516123dc611d6482611e26565b8181526040838301018a10156123f157600080fd5b612402826020830160408601612332565b855250506020928301920161239c565b805161241d81611df7565b919050565b60008060006060848603121561243757600080fd5b83516001600160401b0381111561244d57600080fd5b8401601f8101861361245e57600080fd5b805161246c611d6482611d0d565b8082825260208201915060208360051b85010192508883111561248e57600080fd5b6020840193505b828410156124b95783516124a881611d30565b825260209384019390910190612495565b8096505050505060208401516001600160401b038111156124d957600080fd5b6124e586828701612356565b9250506124f460408501612412565b90509250925092565b634e487b7160e01b600052603260045260246000fd5b6001600160a01b0383168152604060208083018290528351918301829052600091908401906060840190835b818110156125665783516001600160a01b031683526020938401939092019160010161253f565b50909695505050505050565b60006020828403121561258457600080fd5b81516001600160401b0381111561259a57600080fd5b8201601f810184136125ab57600080fd5b80516125b9611d6482611d0d565b8082825260208201915060208360051b8501019250868311156125db57600080fd5b6020840193505b828410156125fd5783518252602093840193909101906125e2565b9695505050505050565b634e487b7160e01b600052601160045260246000fd5b80820281158282048414176103ac576103ac612607565b808201808211156103ac576103ac612607565b60008261266457634e487b7160e01b600052601260045260246000fd5b500490565b808201828112600083128015821682158216171561268957612689612607565b505092915050565b818103818111156103ac576103ac612607565b6000600182016126b6576126b6612607565b5060010190565b600081518084526126d5816020860160208601612332565b601f01601f19169290920160200192915050565b60018060a01b038316815260406020820152600082516060604084015261271360a08401826126bd565b90506020840151606084015260408401516080840152809150509392505050565b60008161274357612743612607565b506000190190565b6020808252602b908201527f496e697469616c697a61626c653a20636f6e7472616374206973206e6f74206960408201526a6e697469616c697a696e6760a81b606082015260800190565b6040815260006127a96040830185611ee4565b82810360208401526127bb8185611ee4565b95945050505050565b81810360008312801583831316838312821617156127e4576127e4612607565b5092915050565b634e487b7160e01b600052602160045260246000fd5b828152604060208201526000611def60408301846126bd565b6000825161282c818460208701612332565b9190910192915050565b60006020828403121561284857600080fd5b81516001600160e01b03198116811461051f57600080fdfea26469706673582212207ba651c95ef58ab18dab0a2ba52f1a747bf8b2c441f4de70ba3cc7ec7d013f8564736f6c634300081c0033","linkReferences":{}},"methodIdentifiers":{"deregisterOperator()":"857dc190","getLastCheckpointOperatorWeight(address)":"3b242e4a","getLastCheckpointThresholdWeight()":"b933fa74","getLastCheckpointThresholdWeightAtBlock(uint32)":"1e4cd85e","getLastCheckpointTotalWeight()":"314f3a49","getLastCheckpointTotalWeightAtBlock(uint32)":"0dba3394","getLastestOperatorSigningKey(address)":"cdcd3581","getOperatorSigningKeyAtBlock(address,uint256)":"5e1042e8","getOperatorWeight(address)":"98ec1ac9","getOperatorWeightAtBlock(address,uint32)":"955f2d90","initialize(address,uint256,((address,uint96)[]))":"ab118995","isValidSignature(bytes32,bytes)":"1626ba7e","minimumWeight()":"40bf2fb7","operatorRegistered(address)":"ec7fbb31","owner()":"8da5cb5b","quorum()":"1703a018","registerOperatorWithSignature((bytes,bytes32,uint256),address)":"3d5611f6","renounceOwnership()":"715018a6","transferOwnership(address)":"f2fde38b","updateMinimumWeight(uint256,address[])":"696255be","updateOperatorSigningKey(address)":"743c31f4","updateOperators(address[])":"00cf2ab5","updateOperatorsForQuorum(address[][],bytes)":"5140a548","updateQuorumConfig(((address,uint96)[]),address[])":"dec5d1f6","updateStakeThreshold(uint256)":"5ef53329"},"id":23}